:020000040800F2
:1000000000A000202D6D0208596701085D670108F6
:100010006167010865670108696701080000000061
:100020000000000000000000000000006D670108F3
:100030007167010800000000756701087559000824
:10004000E56D0208E56D0208E56D0208E56D020840
:10005000E56D0208E56D0208E56D0208E56D020830
:10006000E56D0208E56D0208E56D0208E56D020820
:10007000E56D0208E56D0208B1660008E56D02084D
:10008000E56D0208592B0008E56D0208E56D0208D0
:10009000E56D0208E56D0208E56D0208E56D0208F0
:1000A000E56D020885490008E56D02085949000818
:1000B0006949000875490008E56D0208E56D020808
:1000C000E56D0208E56D0208E56D0208E56D0208C0
:1000D000E56D0208E56D0208E56D0208B549000806
:1000E000E56D0208E56D0208E56D0208E56D0208A0
:1000F000E56D0208E56D0208E56D0208E56D020890
:10010000000000000000000000000000E56D020893
:10011000E56D0208E56D0208E56D0208E56D02086F
:10012000E56D0208E56D0208E56D0208E56D02085F
:1001300005620008E56D02080000000000000000F4
:10014000E56D0208E56D0208E56D0208000000009B
:10015000000000000000000000000000000000009F
:100160000000000000000000E56D0208E56D0208D7
:10017000E56D020800000000000000000000000023
:0801800000000000E56D02081B
:1001880010B540F2A464C2F20004237863B940F2C7
:100198000000C0F2000028B14EF65440C0F602003C
:1001A800AFF300800121217010BD00BF08B540F2F7
:1001B8000003C0F200034BB14EF6544040F2A86170
:1001C800C0F60200C2F20001AFF3008040F2A46062
:1001D800C2F20000016829B140F20003C0F2000336
:1001E80003B1984708BD00BF08B54FF48050C4F666
:1001F80000004FF0080119F003F94FF44050C4F221
:1002080001004FF0240105F021FA4FF44050C4F2E8
:1002180001004FF0800105F019FA4FF48050C4F640
:1002280000004FF0080119F0DFF84FF0640005F006
:1002380023FF4FF48050C4F600004FF0080119F076
:10024800DFF84FF44050C4F201004FF0200105F0F0
:10025800FDF94FF44050C4F201004FF0FF0105F0E2
:10026800F5F94FF48050C4F600004FF0080119F07A
:10027800BBF84FF0010005F0FFFE4FF48050C4F6C4
:1002880000004FF0080119F0BBF84FF44050C4F2D9
:1002980001004FF0230105F0D9F94FF44050C4F2A2
:1002A80001004FF0500105F0D1F94FF48050C4F629
:1002B80000004FF0080119F097F84FF0640005F0BE
:1002C80015FF00F075F808BD08B54FF48050C4F666
:1002D80000004FF0080119F093F84FF44050C4F2B1
:1002E80001004FF0E80105F0B1F94FF44050C4F2B5
:1002F80001004FF0000105F0A9F903461A4640F63F
:100308006C03C2F20003DA704FF44050C4F20100EB
:100318004FF0000105F09AF903461A4640F66C03BF
:10032800C2F200039A704FF44050C4F201004FF03B
:10033800000105F08BF903461A4640F66C03C2F239
:1003480000035A704FF44050C4F201004FF000010E
:1003580005F07CF903461A4640F66C03C2F2000326
:100368001A704FF44050C4F201004FF0000105F03C
:100378006DF903461A4640F66C03C2F200035A713F
:100388004FF44050C4F201004FF0000105F05EF94F
:1003980003461A4640F66C03C2F200031A714FF482
:1003A8008050C4F600004FF0080119F01DF808BD90
:1003B80000B585B0424B0093414B0193404B0293EB
:1003C80040F2CC63C2F200034FF001021A704FF002
:1003D8000003ADF80C303BE0FFF776FF9DED007AA7
:1003E80040F66C03C2F200031B881BB206EE903A7B
:1003F800F8EEE67A77EE277ACDED007A9DED017A70
:1004080040F66C03C2F200035B881BB206EE903A1A
:10041800F8EEE67A77EE277ACDED017A9DED027A4D
:1004280040F66C03C2F200039B881BB206EE903ABA
:10043800F8EEE67A77EE277ACDED027A4FF47A7005
:1004480005F01AFEBDF80C3003F10103ADF80C30CD
:10045800BDF80C2040F2CF739A42BDD94FF000038B
:100468008DF80F301CE09DF80F209DF80F304FEAF3
:10047800830304A9CB1813ED047ADFED107AC7EED5
:10048800277A40F65C03C2F200034FEA82029B1807
:10049800C3ED007A9DF80F3003F101038DF80F309A
:1004A8009DF80F30022BDED940F2CC63C2F2000374
:1004B8004FF000021A7005B000BD00BF0000FA44FA
:1004C8000000000000B585B002AB00934FF4A840CF
:1004D800C4F200004FF032014FF028024FF006033B
:1004E80002F078FE9DF8082040F67C03C2F2000373
:1004F8001A709DF8092040F67C03C2F200035A7076
:100508009DF80A2040F67C03C2F200039A709DF819
:100518000B2040F67C03C2F20003DA709DF80C2031
:1005280040F67C03C2F200031A719DF80D2040F6D4
:100538007C03C2F200035A7105B000BD08B54FF440
:10054800A840C4F200004FF032014FF024024FF0EF
:10055800800302F037FD4FF0640005F0C7FD4FF44B
:10056800A840C4F200004FF032014FF020024FF0D3
:10057800970302F027FD4FF00A0005F0B7FD4FF48E
:10058800A840C4F200004FF032014FF023024FF0B0
:10059800100302F017FD4FF0640005F0A7FD00F00E
:1005A80001F808BD00B585B06E4B00936D4B019303
:1005B8006C4B029340F2D063C2F200034FF0010289
:1005C8001A704FF00003ADF80C306BE0FFF77AFFBC
:1005D8009DED007A40F67C03C2F200031B881BB233
:1005E80007EE903AF8EEE76A43F6FC33C2F20003EE
:1005F800D3ED017A76EEE76A43F6FC33C2F20003E4
:10060800D3ED047A66EEA77A77EE277ACDED007AF5
:100618009DED017A40F67C03C2F200035B881BB2B1
:1006280007EE903AF8EEE76A43F6FC33C2F20003AD
:10063800D3ED027A76EEE76A43F6FC33C2F20003A2
:10064800D3ED057A66EEA77A77EE277ACDED017AB3
:100658009DED027A40F67C03C2F200039B881BB230
:1006680007EE903AF8EEE76A43F6FC33C2F200036D
:10067800D3ED037A76EEE76A43F6FC33C2F2000361
:10068800D3ED067A66EEA77A77EE277ACDED027A71
:100698004FF47A7005F0F0FCBDF80C3003F101035B
:1006A800ADF80C30BDF80C2040F2CF739A428DD9CA
:1006B8004FF000038DF80F3019E09DF80F209DF8DA
:1006C8000F304FEA830304A9CB1813ED047ADFED4A
:1006D800247AC7EE277A4FEA820304AAD31843ED97
:1006E800047A9DF80F3003F101038DF80F309DF85F
:1006F8000F30022BE1D99DED007ADDED007A27EE6F
:10070800277ADDED016ADDED017A66EEA77A37EE2C
:10071800277ADDED026ADDED027A66EEA77A77EEDA
:10072800277A17EE900A1FF0FDFF02460B46104687
:1007380019461DF037FF02460B461046194620F0B1
:10074800DFFA024640F20003C2F200031A6040F2E8
:10075800D063C2F200034FF000021A7005B000BD6A
:100768000000FA440000000000B585B002AB009319
:100778004FF4A840C4F200004FF03C014FF00302D0
:100788004FF0060302F026FD9DF8082040F674039A
:10079800C2F200035A709DF8092040F67403C2F2B1
:1007A80000031A709DF80A2040F67403C2F2000391
:1007B8005A719DF80B2040F67403C2F200031A71B7
:1007C8009DF80C2040F67403C2F20003DA709DF81D
:1007D8000D2040F67403C2F200039A704FF0010333
:1007E800184605B000BD00BF08B540F68403C2F244
:1007F8000003224A1A6040F68403C2F200031F4A2B
:100808005A6040F68403C2F200031C4A9A604FF40F
:10081800A840C4F200004FF03C014FF000024FF036
:10082800100302F0CFFB4FF0140005F05FFC4FF40B
:10083800A840C4F200004FF03C014FF001024FF015
:10084800600302F0BFFB4FF0140005F04FFC4FF4BB
:10085800A840C4F200004FF03C014FF002024FF0F4
:10086800000302F0AFFB4FF0140005F03FFCFFF768
:100878007BFF4FF0140005F039FC08BD0000803FF5
:1008880010B58AB00590049113468DF80F304FF0DB
:1008980000038DF8273043F6FC33C2F2000393F8C7
:1008A8004633002B18D09DED057AF2EE047A67EEF8
:1008B800277AFDEEE77A17EE903AADF824309DEDF1
:1008C800047AF2EE047A67EE277AFDEEE77A17EEFD
:1008D800903AADF8223017E09DED057ADFEDB97A50
:1008E80067EE277AFDEEE77A17EE903AADF82430F6
:1008F8009DED047ADFEDB37A67EE277AFDEEE77AAD
:1009080017EE903AADF8223040F20603C2F2000327
:100918001B88BDF924201BB29A4200F08E8043F652
:10092800FC33C2F2000393F84633002B65D0BDF9BF
:10093800243013F1630F46DBBDF92430632B42DC0E
:10094800BDF92430002B02DA4FF02D0401E04FF0FE
:100958002004BDF9242046F26763C6F2666383FB70
:1009680002134FEAA3014FEAE273CB1A9BB21BB200
:1009780083EAE370A0EBE370BDF9242046F26763D5
:10098800C6F2666383FB02134FEAA3014FEAE273E0
:10099800C91A0B464FEA83035B184FEA4303D31A7D
:1009A8009BB21BB2002BB8BF5B420090019306AB11
:1009B80018464FF0070146F6E852C0F602022346F1
:1009C80020F0BEFD25E0BDF9242046F26763C6F29B
:1009D800666383FB02134FEAA3014FEAE273CB1A63
:1009E8009BB21BB206AA10464FF0070146F6F45216
:1009F800C0F6020220F0A4FD0BE0BDF9243006AADF
:100A080010464FF0070146F6FC52C0F6020220F0ED
:100A180097FD4FF00103009306AB18464FF006010F
:100A28004FF000024FF0010303F068F840F20603AC
:100A3800C2F20003BDF824201A809DF80F30012B64
:100A480020D0022B00F0C080002B40F0DF8040F265
:100A58000403C2F200031B78002B00F0D28040F29E
:100A68000403C2F200034FF000021A704FF00002B4
:100A780006AB1A604FF000029A804FF001038DF820
:100A88002730BEE040F20403C2F200031B78012BBA
:100A98000AD140F20803C2F200031B88BDF92220E4
:100AA8001BB29A4200F0AF8040F20403C2F2000386
:100AB8004FF001021A7040F20803C2F20003BDF8B9
:100AC80022201A8043F6FC33C2F2000393F846331F
:100AD800002B65D0BDF9223013F1630F46DBBDF959
:100AE8002230632B42DCBDF92230002B02DA4FF0B2
:100AF8002D0401E04FF02004BDF9222046F267637F
:100B0800C6F2666383FB02134FEAA3014FEAE2735E
:100B1800CB1A9BB21BB283EAE370A0EBE370BDF97A
:100B2800222046F26763C6F2666383FB02134FEA2C
:100B3800A3014FEAE273C91A0B464FEA83035B1815
:100B48004FEA4303D31A9BB21BB2002BB8BF5B42D8
:100B58000090019306AB18464FF0070146F6046271
:100B6800C0F60202234620F0EBFC25E0BDF9222066
:100B780046F26763C6F2666383FB02134FEAA3017A
:100B88004FEAE273CB1A9BB21BB206AA10464FF08B
:100B9800070146F61062C0F6020220F0D1FC0BE015
:100BA800BDF9223006AA10464FF0070146F6186232
:100BB800C0F6020220F0C4FC4FF001038DF8273084
:100BC80021E000BFE7FB514040F20403C2F20003FA
:100BD8001B78022B19D040F20403C2F200034FF035
:100BE80002021A7006AB18464FF0070146F620625B
:100BF800C0F6020220F0A4FC4FF001038DF8273064
:100C080003E000BF02E000BF00E000BF9DF827300E
:100C1800002B0CD04FF00703009306AB18464FF09B
:100C280006014FF000024FF0010302F067FF0AB01F
:100C380010BD00BFF0B589B00590049113468DF83A
:100C48000F304FF000038DF81F3006E140F6A8037F
:100C5800C2F200031B7818461FF052FD04460D46E9
:100C68009DF81F2046F62863C0F602039B5C06EE3B
:100C7800903AF8EE667A17EE900A1FF053FD024696
:100C88000B4694A1D1E900011FF0ECFB02460B468C
:100C98001046194691A3D3E900231FF097FD024699
:100CA8000B46104619468FA3D3E900231FF08EFD8B
:100CB80002460B4616461F4605981FF033FD0246AE
:100CC8000B46304639461FF081FD02460B4620464A
:100CD80029461FF0C9FB02460B4614461D469DEDEA
:100CE800047ADFED7B7AC7EE277A40F6A803C2F2D2
:100CF80000031B781A4640F6A903C2F200031B78CA
:100D0800D31A06EE903AB8EEE67A67EE877A17EECF
:100D1800900A1FF007FD02460B46204629461FF0A1
:100D2800A3FB02460B46104619461FF0E9FF024690
:100D380040F6A903C2F200031B7807EE903AB8EE1A
:100D4800677A40F6AB03C2F200031B7806EE903ACE
:100D5800F8EE667A104617EE101A17EE902A15F07C
:100D6800D3FE07EE900AFCEEE77A17EE903A8DF87C
:100D78001E309DF81E2048F63963C3F6E303A3FB33
:100D880002034FEA9303DAB29DF81F1040F2F063B2
:100D9800C2F200035B5C9A4229D09DF81F2040F202
:100DA800F063C2F200039C5C9DF81F2046F628639E
:100DB800C0F602039B5C00934FF000004FF0010166
:100DC8004FF00002234602F099FE9DF81F209DF87F
:100DD8001E1048F63963C3F6E303A3FB01034FEA89
:100DE8009303D9B240F2F063C2F2000399549DF81C
:100DF8001E2048F63963C3F6E303A3FB02134FEA48
:100E080093010B464FEAC3035B184FEA4303D31A17
:100E1800DBB2A3F18003DBB28DF81B309DF81F20F5
:100E280040F2F063C2F200039C5C9DF81F2046F676
:100E38002863C0F602039B5C00930DF11B03184660
:100E48004FF001014FF00002234602F057FE9DF8D3
:100E58001F3003F101038DF81F309DF81F30052B5B
:100E68007FF6F4AE40F20A03C2F200031B789DF845
:100E78000F209A4227D09DF80F304FEA4303DBB288
:100E880003F10103DBB28DF81C309DF81C3003F12F
:100E98000103DBB28DF81D3040F6AE03C2F2000349
:100EA8001B784FF00E02009207AA10464FF002017D
:100EB8004FF0000202F022FE40F20A03C2F20003E1
:100EC8009DF80F201A7009B0F0BD00BFAFF3008085
:100ED800DB0FC93E0000000000002D4000000000AC
:100EE80000002840666666666666F63F10B58CB0F8
:100EF8000590049113468DF80F304FF000038DF8DC
:100F080018304FF000038DF819304FF000038DF8BA
:100F18001A304FF000038DF81B304FF000038DF8A6
:100F28001C3040F6AA03C2F200031B781A469DED56
:100F3800047ADFEDD27AC7EE277A40F6AA03C2F226
:100F480000031B78194640F6AC03C2F200031B7875
:100F5800CB1A06EE103AB8EEC67A67EE877AFDEE3F
:100F6800E77A17EE903AD31807EE903AF8EEE76A68
:100F780040F6AC03C2F200031B7806EE103AB8EE56
:100F8800467A40F6AD03C2F200031B7806EE103A2B
:100F9800F8EE467A16EE900A17EE101A17EE902A17
:100FA80015F0B2FD07EE900AFCEEE77A17EE903ADC
:100FB800DBB28DF818309DF8182048F63963C3F66F
:100FC800E303A3FB02034FEA93010B464FEAC30373
:100FD8005B184FEA4303D31ADBB2A3F18003DBB2F9
:100FE8008DF8233040F2F863C2F200031A789DF8B6
:100FF800181048F63963C3F6E303A3FB01034FEA6D
:101008009303DBB29A422FD040F2F863C2F2000396
:101018001B784FF0070200924FF000004FF00101DB
:101028004FF0000202F06AFD40F2F863C2F20003DA
:101038001B784FF0160200924FF000004FF00101AC
:101048004FF0000202F05AFD9DF8182048F6396367
:10105800C3F6E303A3FB02134FEA9303DAB240F2A9
:10106800F863C2F200031A7040F2F863C2F2000398
:101078001B784FF0070200920DF1230210464FF043
:1010880001014FF0000202F039FD40F2F863C2F2AC
:1010980000031B784FF0160200920DF12302104650
:1010A8004FF001014FF0000202F028FD46F63063D0
:1010B800C0F60203DB781A464FEA4202D3184FEA19
:1010C80083039BB2A3F1AE03ADF82C3046F6306330
:1010D800C0F602039B781A464FEA4202D3184FEA39
:1010E80083039BB2A3F1AE03ADF82A309DED057AD8
:1010F800DFED637A67EE277ACDED097A40F6AA0329
:10110800C2F200031B784FEA43029DF81C30D31A41
:1011180006EE103AF8EEC66A40F6AC03C2F20003D7
:101128001B7807EE903AB8EE677A40F6AD03C2F244
:1011380000031B7806EE103AF8EE467A16EE900A8F
:1011480017EE101A17EE902A15F0DEFC07EE900A3B
:10115800FCEEE77A17EE903ADBB28DF8193040F6DC
:10116800AA03C2F200031B784FEA43029DF81B3022
:10117800D31A07EE903AF8EEE76A40F6AC03C2F2EB
:1011880000031B7806EE103AB8EE467A40F6AD0337
:10119800C2F200031B7806EE103AF8EE467A16EE15
:1011A800900A17EE101A17EE902A15F0ADFC07EE0C
:1011B800900AFCEEE77A17EE903ADBB28DF81A3017
:1011C80040F6AA03C2F200031B78BDF82A2006EEF7
:1011D800902AB8EE667ADDED097A67EE277AFDEE99
:1011E800E77A17EE902A9B1A07EE903AF8EEE76A2C
:1011F80040F6AC03C2F200031B7806EE103AB8EED4
:10120800467A40F6AD03C2F200031B7806EE103AA8
:10121800F8EE467A16EE900A17EE101A17EE902A94
:1012280015F072FC07EE900AFCEEE77A17EE903A9A
:10123800DBB28DF81B3040F6AA03C2F200031B781C
:10124800BDF82C2006EE902AB8EE667ADDED097A14
:1012580067EE277AFDEEE77A17EE902A9B1A07EEDB
:10126800903AF8EEE76A40F6AC03C2F200031B7846
:1012780006EE103AB8EE467A04E000BFDB0F493FAD
:101288003333B33F40F6AD03C2F200031B7806EEDA
:10129800103AF8EE467A16EE900A17EE101A17EE84
:1012A800902A15F031FC07EE900AFCEEE77A17EE6B
:1012B800903ADBB28DF81C304FF001038DF82F30D7
:1012C80083E09DF82F2040F2F863C2F200039A5C95
:1012D8009DF82F300CA8C31813F8181C48F639636A
:1012E800C3F6E303A3FB01034FEA9303DBB29A427D
:1012F8002FD09DF82F2040F2F863C2F200039C5CC7
:101308009DF82F3003F1FF3246F63063C0F6020332
:101318009B5C00934FF000004FF001014FF000027A
:10132800234602F0EBFB9DF82F209DF82F300CA9E7
:10133800CB1813F8181C48F63963C3F6E303A3FB6C
:1013480001034FEA9303D9B240F2F863C2F20003F3
:1013580099549DF82F300CA9CB1813F8182C48F67F
:101368003963C3F6E303A3FB02034FEA93010B4679
:101378004FEAC3035B184FEA4303D31ADBB2A3F166
:101388008003DBB28DF81F309DF82F2040F2F86300
:10139800C2F200039C5C9DF82F3003F1FF3246F641
:1013A8003063C0F602039B5C00930DF11F031846DF
:1013B8004FF001014FF00002234602F09FFB9DF819
:1013C8002F3003F101038DF82F309DF82F30042BB7
:1013D8007FF677AF40F20B03C2F200031B789DF84B
:1013E8000F209A4227D09DF80F304FEA4303DBB213
:1013F80003F10103DBB28DF820309DF8203003F1B2
:101408000103DBB28DF8213040F6AE03C2F20003CF
:101418001B784FF00E02009208AA10464FF0020106
:101428004FF0000202F06AFB40F20B03C2F2000325
:101438009DF80F201A700CB010BD00BF00B587B022
:1014480003909DED037ADFED287A67EE277A9FED0A
:10145800277AC7EE877A9FED267A77EE877AFDEEB0
:10146800E77A17EE903A9BB21BB246F2B702CBF27C
:101478000B6282FB0312D2184FEA22214FEAE37271
:101488008A1A4FF4B47101FB02F29B1AADF81630B8
:1014980040F20C03C2F200031B88BDF916201BB2F0
:1014A8009A421FD0BDF9163004AA10464FF0060123
:1014B80046F63462C0F6020220F042F84FF00D03FF
:1014C800009304AB18464FF005014FF000024FF0AF
:1014D800010302F013FB40F20C03C2F20003BDF853
:1014E80016201A8007B000BD00003443DB0F4940C6
:1014F8000000B443AFF3008000B583B043F6FC337B
:10150800C2F2000393F84B33032B7ED801A252F8A2
:1015180023F000BF131600082D15000879150008E0
:10152800C515000846F64C60C0F6020001F0F8FC4C
:1015380046F66860C0F6020001F0F2FC46F67C60F0
:10154800C0F6020001F0ECFC46F68C60C0F6020022
:1015580001F0E6FC46F69C60C0F6020001F0E0FCF3
:1015680040F64D03C2F200034FF000021A704CE03F
:1015780046F6AC60C0F6020001F0D2FC46F66860A0
:10158800C0F6020001F0CCFC46F67C60C0F6020012
:1015980001F0C6FC46F68C60C0F6020001F0C0FC03
:1015A80046F69C60C0F6020001F0BAFC40F64C0317
:1015B800C2F200034FF000021A7026E04FF0000359
:1015C8008DF807300FE09DF8072046F63C63C0F61B
:1015D80002039B5C184601F06DFC9DF8073003F18F
:1015E80001038DF807309DF807300D2BEBD946F62F
:1015F800E060C0F6020001F093FC40F66803C2F216
:1016080000034FF000021A7000BF43F69833C2F28D
:101618000003204A1A6443F69833C2F200031D4AB5
:101628005A6443F69833C2F200031B4A9A6443F69D
:101638009833C2F20003184ADA6443F69833C2F2C8
:101648000003144A1A6543F69833C2F200034FF0B8
:10165800000283F8542043F69833C2F200034FF097
:10166800000283F8552043F69833C2F2000342F291
:101678000F729A6543F69833C2F20003074ADA6597
:1016880043F69833C2F20003034A1A6601F0AAFB34
:1016980003B000BDF6832E43003C1C46000000004A
:1016A80000B583B04FF000038DF8073001F0AAFBB6
:1016B8000346ADF80230BDF80230002B02D14FF0DE
:1016C800000369E24FF00003ADF804305BE201F07B
:1016D800B7FB03468DF8013040F64D03C2F2000314
:1016E8001B78052B00F2498201A252F823F000BFB3
:1016F800111700085F17000895170008011800085F
:10170800A1180008D31800089DF80130D02B0ED17D
:1017180040F6D403C2F200034FF010021A7040F6EC
:101728004D03C2F200034FF001021A7022E29DF845
:101738000130D12B40F01E8240F6D403C2F20003E0
:101748004FF013021A7040F64D03C2F200034FF037
:1017580001021A700EE29DF80130DD2B07D140F628
:101768004D03C2F200034FF002021A7006E040F681
:101778004D03C2F200034FF000021A7040F6D60380
:10178800C2F200034FF000021A70F6E140F6D603E9
:10179800C2F200039DF801201A7040F6D603C2F287
:1017A80000031B78202B1FD140F64D03C2F2000323
:1017B8004FF003021A7040F6B003C2F200039DF81E
:1017C80001201A7040F6B003C2F200031A7840F6FE
:1017D800D503C2F200031A7040F6B103C2F2000347
:1017E8004FF000021A70C8E140F64D03C2F2000340
:1017F8004FF000021A70C0E140F6B003C2F20003D5
:101808001A789DF80130D318DAB240F6B003C2F264
:1018180000031A7040F6D503C2F200031A7840F6A6
:10182800B003C2F200031B78D318DAB240F6D5032E
:10183800C2F200031A7040F6B103C2F200031B782B
:101848001F2B14D840F6B103C2F200031A781146D0
:1018580040F6B403C2F200039DF80100585402F1A7
:101868000103DAB240F6B103C2F200031A7040F67F
:10187800B103C2F200031A7840F6D603C2F200039D
:101888001B789A42C0F0788140F64D03C2F20003FB
:101898004FF004021A706FE140F6B003C2F2000381
:1018A8001B789DF801209A4207D140F64D03C2F2F9
:1018B80000034FF005021A705FE140F64D03C2F2D3
:1018C80000034FF000021A7057E140F6D503C2F248
:1018D80000031B789DF801209A4240F0028140F6EF
:1018E800D403C2F200031B78102B36D140F6B403A0
:1018F800C2F200031B6807EE903AB8EEE77ADFED14
:10190800A87A67EE277A9FEDA77A67EE877A9FED28
:10191800A67AC7EE877A43F69833C2F20003C3ED7E
:10192800107A40F6B403C2F200035B6807EE903AFF
:10193800B8EEE77ADFED9A7A67EE277A9FED997A23
:1019480067EE877A9FED987AC7EE877A43F69833E1
:10195800C2F20003C3ED117A35E040F6B403C2F2D7
:1019680000031B6807EE903AB8EEE77ADFED8F7A4E
:1019780067EE277A9FED8B7A67EE877A9FED8A7AF2
:10198800C7EE877A43F69833C2F20003C3ED107AA4
:1019980040F6B403C2F200035B6807EE903AB8EE73
:1019A800E77ADFED827A67EE277A9FED7E7A67EE37
:1019B800877A9FED7D7AC7EE877A43F69833C2F22D
:1019C8000003C3ED117A40F6B403C2F200039B682A
:1019D80007EE903AB8EEE77ADFED757A67EE277A88
:1019E80043F69833C2F20003C3ED127A40F6B4030B
:1019F800C2F20003DB6807EE903AB8EEE77ADFED53
:101A08006C7A67EE277A43F69833C2F20003C3ED87
:101A1800137A40F6B403C2F200031B6907EE903A4A
:101A2800B8EEE77ADFED627A67EE277A9FED5D7AA6
:101A380067EE877A9FED5C7AC7EE877A43F698332C
:101A4800C2F20003C3ED147A40F6B403C2F20003F5
:101A58001A7D43F69833C2F2000383F8542040F607
:101A6800B403C2F200035A7D43F69833C2F200036E
:101A780083F8552040F6B403C2F20003D3F81620C9
:101A880043F69833C2F200039A6540F6B403C2F2F3
:101A98000003D3F81A3007EE903AB8EE677ADFED14
:101AA800457A67EE277A43F69833C2F20003C3ED0E
:101AB800177A40F6B403C2F20003DB8B07EE903AC4
:101AC800B8EE677ADFED3A7A67EE277A43F698330D
:101AD800C2F20003C3ED187A4FF001038DF8073006
:101AE80040E043F69833C2F20003334A1A6443F6DF
:101AF8009833C2F20003304A5A6443F69833C2F26C
:101B080000032E4A9A6443F69833C2F200032B4A24
:101B1800DA6443F69833C2F20003274A1A6543F69B
:101B28009833C2F200034FF0000283F8542043F6C2
:101B38009833C2F200034FF0000283F8552043F6B1
:101B48009833C2F2000342F20F729A6543F6983353
:101B5800C2F200031A4ADA6543F69833C2F2000368
:101B6800164A1A6640F64D03C2F200034FF000020F
:101B78001A7002E000BF00E000BFBDF8043003F1B6
:101B88000103ADF80430BDF80420BDF802309A42D4
:101B9800FFF49DAD9DF80730184603B000BD00BFA7
:101BA800BD378635DB0F49400000344395BFD63337
:101BB8000AD7233C6F12833AF6832E43003C1C4617
:101BC8000000000086B00390029113468DF807309C
:101BD8004FF000038DF817304FF00003049317E01F
:101BE800049A13464FEA83039B184FEA430304936E
:101BF800039B1B681A78A2F1300204998A18049290
:101C080003F10102039B1A604FF001038DF81730AE
:101C1800039B1B681B782F2B04D9039B1B681B781D
:101C2800392BDDD9039B1B681B782E2B41D1039BD5
:101C38001B6803F10102039B1A6021E0049A134612
:101C48004FEA83039B184FEA43030493039B1B68E3
:101C58001B782F2B14D9039B1B681B78392B0FD8A3
:101C6800039B1B681A78A2F1300204998A1804921F
:101C780003F10102039B1A604FF001038DF817303E
:101C88009DF80730002B0CBF00230123DBB29DF821
:101C9800072002F1FF328DF80720002BCED119E082
:101CA800049A13464FEA83039B184FEA43030493AD
:101CB80000E000BF9DF80730002B0CBF0023012374
:101CC800DBB29DF8072002F1FF328DF80720002BC8
:101CD800E6D106E005E0039B1B6803F10102039BC4
:101CE8001A60039B1B681B782F2B04D9039B1B6866
:101CF8001B78392BEFD9039B1B681B782C2B06D13B
:101D0800039B1B6803F10102039B1A6003E04FF079
:101D180000038DF817309DF81730002B05D0029B73
:101D2800002B02D0029B049A1A609DF817301846BF
:101D380006B0704700B587B00390029113468DF83E
:101D480007309DF80730039804AA11461A46FFF792
:101D580039FF0346002B00F08480049A4CF66B236D
:101D6800C6F65F3383FB02134FEAA3514FEAE273CF
:101D7800CA1A49F28063C0F2980303FB02F3059381
:101D8800049A059BD31A0493049B4FF0640202FB48
:101D980003F348F68902C8F6880282FB0312D218B8
:101DA8004FEA62124FEAE373D31A0493049B059A2D
:101DB800D3180593039B1B681B78A3F14503122BCB
:101DC8003AD801A252F823F0331E0008411E000839
:101DD800411E0008411E0008411E0008411E00085F
:101DE800411E0008411E0008411E0008331E00085D
:101DF800411E0008411E0008411E0008411E00083F
:101E08001D1E0008411E0008411E0008411E000852
:101E18001D1E0008059BC3F100030593039B1B6867
:101E280003F10102039B1A6007E0039B1B6803F19F
:101E38000102039B1A6000E000BF039B1B681B782C
:101E48002C2B0ED1039B1B6803F10102039B1A6024
:101E5800029B002B02D0029B059A1A604FF00103E7
:101E68000CE0039B1B681B782C2B05D1039B1B687C
:101E780003F10102039B1A604FF00003184607B0F4
:101E880000BD00BF00B583B040F6DC03C2F200031A
:101E98000193019B184646F61471C0F602014FF0F3
:101EA80006021FF0ADFC0346002B40F0C080019BEA
:101EB80003F10603019301AB18466B4619464FF030
:101EC8000302FFF77FFE0346002B09D0009B07EEB5
:101ED800903AB8EEE77ADFEDB77A67EE277A01E055
:101EE800DFEDB57A43F69833C2F20003C3ED177AF3
:101EF80001AB18466B4619464FF00502FFF71AFF6B
:101F08000346002B11D0009B07EE903AB8EEE77A13
:101F1800DFEDAA7A67EE277A9FEDAC7A67EE877ACB
:101F28009FEDAB7AC7EE877A01E0DFEDAA7A43F638
:101F38009833C2F20003C3ED107A01AB18466B4622
:101F480019464FF00502FFF7F5FE0346002B11D0A6
:101F5800009B07EE903AB8EEE77ADFED987A67EEE5
:101F6800277A9FED9A7A67EE877A9FED997AC7EE7E
:101F7800877A01E0DFED977A43F69833C2F20003DF
:101F8800C3ED117A019B03F10203019301AB1846DB
:101F98006B4619464FF00002FFF714FE0346002B6C
:101FA80002D0009BDAB201E04FF0000243F698330A
:101FB800C2F2000383F8542001AB18466B46194659
:101FC8004FF00302FFF7FEFD0346002B09D0009BEC
:101FD80007EE903AB8EEE77ADFED767A67EE277A81
:101FE80001E0DFED787A43F69833C2F20003C3EDDF
:101FF800187A01AB18466B4619464FF00302FFF7F3
:10200800E1FD0346002B09D0009B07EE903AB8EE9D
:10201800E77ADFED687A67EE277A01E0DFED697A23
:1020280043F69833C2F20003C3ED127A16E1019B1E
:10203800184646F61C71C0F602014FF006021FF062
:10204800DFFB0346002B1ED1019B03F1060301931E
:10205800019B03F10203019301AB18466B46194635
:102068004FF00002FFF7AEFD0346002B02D0009BA5
:10207800DAB201E04FF0000243F69833C2F20003EF
:1020880083F85520EAE0019B184646F62471C0F60D
:1020980002014FF006021FF0B3FB0346002B40F08D
:1020A800DD80019B03F10603019301AB18466B46E3
:1020B80019464FF00302FFF785FD0346002B09D0B0
:1020C800009B07EE903AB8EEE77ADFED3A7A67EED2
:1020D800277A01E0DFED387A43F69833C2F200033D
:1020E800C3ED177A019B03F10203019301AB184674
:1020F8006B4619464FF00502FFF71CFE0346002BFE
:1021080011D0009B07EE903AB8EEE77ADFED2B7A14
:1021180067EE277A9FED2D7A67EE877A9FED2C7A06
:10212800C7EE877A01E0DFED2B7A43F69833C2F2E7
:102138000003C3ED107A01AB18466B4619464FF001
:102148000502FFF7F7FD0346002B11D0009B07EEB1
:10215800903AB8EEE77ADFED197A67EE277A9FEDC5
:102168001B7A67EE877A9FED1A7AC7EE877A01E0C5
:10217800DFED187A43F69833C2F20003C3ED117A03
:1021880001AB18466B4619464FF00302FFF71AFDDC
:102198000346002B20D0009B07EE903AB8EEE77A72
:1021A800DFED047A67EE277A9FED057A67EE877A86
:1021B80014E000BF6F12833A0000000095BFD633C9
:1021C800A1B2033F003C1C466F12833ADB0F494023
:1021D80000003443F6832E435FED067A43F69833C6
:1021E800C2F20003C3ED137A01AB18466B461946D9
:1021F8004FF00302FFF7E6FC0346002B11D0009BCB
:1022080007EE903AB8EEE77A5FED117A67EE277A33
:102218001FED127A67EE877A1FED137AC7EE877A79
:1022280001E05FED147A43F69833C2F20003C3ED80
:10223800147A01AB18466B4619464FF00002FFF7B7
:10224800C1FC0346002B02D0009B1A4601E042F273
:102258000F7243F69833C2F200039A6503B000BDCB
:1022680000B583B04FF000038DF8073000F0CAFDC9
:102278000346ADF802304FF00003ADF80430C5E076
:1022880000F0DEFD03468DF8013040F64C03C2F243
:1022980000031B78032B00F2B38001A252F823F04D
:1022A800B9220008EF22000887230008CB23000882
:1022B8009DF80130242B40F0A28040F64C03C2F276
:1022C80000034FF001021A7040F20073C2F20003DB
:1022D8004FF000021A7040F6D803C2F200034FF024
:1022E80000021A708BE09DF801302A2B14D140F2BD
:1022F8000073C2F200031B781A4640F6DC03C2F2F0
:1023080000034FF00001995440F64C03C2F2000359
:102318004FF002021A7073E040F20073C2F2000339
:102328001B784F2B23D840F20073C2F200031A78AF
:10233800114640F6DC03C2F200039DF80100585430
:1023480002F10103DAB240F20073C2F200031A701C
:1023580040F6D803C2F200031A789DF801305340C2
:10236800DAB240F6D803C2F200031A7048E040F629
:102378004C03C2F200034FF000021A7040E040F62E
:10238800D803C2F200031B784FEA1313DBB21A46D4
:1023980046F60473C0F602039B5C9DF801209A423E
:1023A80007D140F64C03C2F200034FF003021A7043
:1023B80026E040F64C03C2F200034FF000021A7008
:1023C8001EE040F6D803C2F200031B7803F00F02A8
:1023D80046F60473C0F602039B5C9DF801209A42FE
:1023E80005D14FF001038DF80730FFF74BFD40F69C
:1023F8004C03C2F200034FF000021A7000E000BF65
:10240800BDF8043003F10103ADF80430BDF8042031
:10241800BDF802309A42FFF433AF9DF807301846F2
:1024280003B000BD40F66813C2F200031B78012B0D
:1024380040F03D8140F66A13C2F200031B78022B7C
:1024480049D140F63413C2F200039B6807EE903A74
:10245800B8EEE77ADFED967A67EE277A9FED957A00
:1024680067EE877A9FED947AC7EE877A43F69833BA
:10247800C2F20003C3ED107A40F63413C2F200032F
:102488005B6807EE903AB8EEE77ADFED897A67EE97
:10249800277A9FED887A67EE877A9FED877AC7EE6D
:1024A800877A43F69833C2F20003C3ED117A40F6F7
:1024B8003413C2F20003DB6807EE903AB8EEE77A0D
:1024C800DFED7E7A67EE277A43F69833C2F200038F
:1024D800C3ED127AEBE040F66A13C2F200031B78F0
:1024E800032B25D140F63413C2F200031B79022BCB
:1024F80002D0032B09D012E043F69833C2F200034E
:102508004FF0020283F85520D1E043F69833C2F227
:1025180000034FF0030283F8552000BFC7E043F6DD
:102528009833C2F200034FF0010283F85520BEE051
:1025380040F66A13C2F200031B78042B13D140F64D
:102548003413C2F200039B8907EE903AB8EE677A1B
:10255800DFED5A7A67EE277A43F69833C2F2000322
:10256800C3ED187AA3E040F66A13C2F200031B78A1
:10257800062B0CD140F63413C2F2000393F82F2037
:1025880043F69833C2F2000383F854208FE040F6F4
:102598006A13C2F200031B78122B2ED140F63413B3
:1025A800C2F200039B6907EE903AB8EEE77ADFEDD6
:1025B800437A67EE277A9FED3F7A67EE877A9FED39
:1025C8003E7AC7EE877A43F69833C2F20003C3ED2A
:1025D800147A40F63413C2F200035B6907EE903AAE
:1025E800B8EE677ADFED357A67EE277A43F69833E7
:1025F800C2F20003C3ED137A59E040F66A13C2F23F
:1026080000031B78212B52D140F63413C2F2000389
:102618001B7C42F2107202FB03F240F63413C2F242
:1026280000035B7C4FF0640101FB03F3D21840F612
:102638003413C2F200039B7CD31807EE903AB8EE2D
:10264800E77A40F63413C2F200039B6807EE903A2B
:10265800F8EEE76ADFED1A7A66EEA77A77EE277A60
:1026680043F69833C2F20003C3ED177A40F63413E9
:10267800C2F20003DB7B42F2107202FB03F240F667
:102688003413C2F200039B7B4FF0640101FB03F398
:10269800D21840F63413C2F200039B89D318A3F56D
:1026A800FA631A4643F69833C2F200039A657047F4
:1026B80095BFD633DB0F4940000034430AD7233C8B
:1026C8005F70893000B583B04FF000038DF8073094
:1026D80000F098FB0346ADF802304FF00003ADF868
:1026E8000430CCE100F0ACFB03468DF8013040F635
:1026F8006803C2F200031B78082B00F2BA8101A21A
:1027080052F823F0312700084B27000873270008E8
:10271800AD2700080928000865280008F3280008E4
:1027280091290008C32900089DF80130B52B40F015
:102738009D8140F66803C2F200034FF001021A704F
:1027480094E19DF80130622B07D140F66803C2F28C
:1027580000034FF002021A708BE140F66803C2F2E0
:1027680000034FF000021A7083E140F66813C2F2CA
:1027780000039DF801201A7040F66913C2F20003A5
:102788009DF801201A7040F66B13C2F200039DF801
:1027980001201A7040F66803C2F200034FF00302EA
:1027A8001A7066E140F66A13C2F200039DF8012030
:1027B8001A7040F66913C2F200031A789DF80130C6
:1027C800D318DAB240F66913C2F200031A7040F661
:1027D8006B13C2F200031A7840F66913C2F20003C1
:1027E8001B78D318DAB240F66B13C2F200031A70E2
:1027F80040F66803C2F200034FF004021A7038E191
:1028080040F63013C2F200039DF801201A7040F61A
:102818006913C2F200031A789DF80130D318DAB2AE
:1028280040F66913C2F200031A7040F66B13C2F245
:1028380000031A7840F66913C2F200031B78D31814
:10284800DAB240F66B13C2F200031A7040F668035E
:10285800C2F200034FF005021A700AE140F6301385
:10286800C2F200031A7840F63013C2F200031A705D
:1028780040F66C13C2F200034FF000021A7040F6E3
:102888006913C2F200031A789DF80130D318DAB23E
:1028980040F66913C2F200031A7040F66B13C2F2D5
:1028A80000031A7840F66913C2F200031B78D318A4
:1028B800DAB240F66B13C2F200031A7040F6301316
:1028C800C2F200031B78342B07D840F66803C2F223
:1028D80000034FF006021A70CBE040F66803C2F21C
:1028E80000034FF000021A70C3E040F66913C2F209
:1028F80000031A789DF80130D318DAB240F669134C
:10290800C2F200031A7040F66B13C2F200031A7881
:1029180040F66913C2F200031B78D318DAB240F606
:102928006B13C2F200031A7040F66C13C2F2000374
:102938001B78332B14D840F66C13C2F200031A78B4
:10294800114640F63413C2F200039DF801005854B2
:1029580002F10103DAB240F66C13C2F200031A70F6
:1029680040F66C13C2F200031A7840F63013C2F234
:1029780000031B789A427BD340F66803C2F2000337
:102988004FF007021A7073E040F66913C2F20003B1
:102998001B789DF801209A4207D040F66803C2F2DE
:1029A80000034FF000021A7063E040F66803C2F2B9
:1029B80000034FF008021A705BE040F66B13C2F296
:1029C80000031B789DF801209A4206D14FF00103BD
:1029D8008DF80730FFF726FD40E043F69833C2F242
:1029E80000032D4A1A6443F69833C2F200032A4AB8
:1029F8005A6443F69833C2F20003284A9A6443F6AD
:102A08009833C2F20003254ADA6443F69833C2F2D7
:102A18000003214A1A6543F69833C2F200034FF0C7
:102A2800000283F8542043F69833C2F200034FF0B3
:102A3800000283F8552043F69833C2F2000342F2AD
:102A48000F729A6543F69833C2F20003144ADA65A6
:102A580043F69833C2F20003104A1A6640F6680338
:102A6800C2F200034FF000021A7002E000BF00E05B
:102A780000BFBDF8043003F10103ADF80430BDF820
:102A88000420BDF802309A42FFF42CAE9DF80730BE
:102A9800184603B000BD00BFF6832E43003C1C4619
:102AA8000000000008B54FF08003C4F2020340F2B2
:102AB8000872C2F200021288114641F27012C2F284
:102AC80000028A18DA6040F20A73C2F200031A8818
:102AD80040F20873C2F200031B889A421BD94FF0D8
:102AE8008003C4F2020340F20A72C2F200021288A2
:102AF800114640F20872C2F2000212888A1A5A601D
:102B080040F20A73C2F200031A8840F20873C2F254
:102B180000031A8012E04FF08003C4F2020340F26F
:102B28000872C2F200021288C2F500625A6040F2CE
:102B38000873C2F200034FF000021A804FF08000C1
:102B4800C4F202004FF0010115F08AFB08BD00BF76
:102B580008B54FF0007015F03FFC4FF08000C4F24C
:102B680002004FF0000115F07BFB40F20A73C2F23D
:102B780000031A8840F20873C2F200031B889A42C5
:102B880001D0FFF78FFF08BD00B595B04FF40030B6
:102B98004FF0010118F010F84FF001004FF001015B
:102BA80018F00AF84FF400304FF0010118F050F80F
:102BB8004FF00C0312934FF002038DF84C304FF096
:102BC80003038DF84D304FF000038DF84E304FF071
:102BD80001038DF84F304FF090404FF002014FF055
:102BE800070216F03DFC4FF090404FF003014FF004
:102BF800070216F035FC4FF0904012AB194616F05C
:102C0800C7FA4FF011038DF800304FF001038DF82B
:102C180001304FF000038DF802304FF001038DF8BA
:102C280003306B46184617F0FFF84FF4E1330C9366
:102C38004FF000030D934FF000030E934FF0000385
:102C48000F934FF00C0310934FF0000311934FF4C0
:102C58008840C4F200000CAB19461AF0D5FE4FF0BC
:102C68006C00C4F2020015F085F94FF40063ADF86A
:102C780010304FF0000303934FF000030B9340F61E
:102C88007013C2F2000302934FF0000308934FF051
:102C9800800306934FF02003099344F22443C4F2BF
:102CA800000301934FF0000307934FF000030593CF
:102CB8004FF480530A934FF06C00C4F2020001AB4A
:102CC800194615F061FA4FF06C00C4F202004FF09B
:102CD800010115F0C5FA4FF48840C4F200004FF026
:102CE80040014FF001021BF0A9FA4FF06C00C4F24A
:102CF800020015F0DBFA03461A4640F20473C2F2EA
:102D080000031A604FF08000C4F2020015F032F997
:102D18004FF40063ADF810304FF0100303934FF0F9
:102D280000030B9341F27013C2F2000302934FF0B9
:102D3800000308934FF0800306934FF000030993B4
:102D480044F22843C4F2000301934FF000030793B1
:102D58004FF0000305934FF480530A934FF080001F
:102D6800C4F2020001AB194615F00EFA4FF08000CC
:102D7800C4F202004FF002014FF0010215F09EFA72
:102D88004FF08003C4F202034FF000025A604FF480
:102D98008840C4F200004FF080014FF001021BF0A0
:102DA8004DFA4FF48840C4F200004FF001011AF0C8
:102DB8003FFF15B000BD00BF08B54FF06C00C4F26E
:102DC800020015F073FA03461A4640F20473C2F281
:102DD80000031B689A420CBF002301239BB21846CC
:102DE80008BD00BF08B54FF06C00C4F2020015F032
:102DF8005DFA03461A4640F20473C2F200031A60F1
:102E080008BD00BF10B582B040F20473C2F20003DF
:102E18001C684FF06C00C4F2020015F047FA034634
:102E2800E31A0193019B002B02DB019B9BB204E098
:102E3800019B9BB203F500639BB2184602B010BD1C
:102E480082B040F20473C2F200031B68C3F500624B
:102E580040F67013C2F200039B5C8DF8073040F215
:102E68000473C2F200031B6803F1FF3240F20473DB
:102E7800C2F200031A6040F20473C2F200031B6836
:102E8800002B06D140F20473C2F200034FF4006233
:102E98001A609DF80730184602B0704708B500BFA1
:102EA800FFF78AFF0346002BFAD0FFF7C9FF034656
:102EB800184608BD00B583B003468DF8073040F2C8
:102EC8000A73C2F200031B881A4641F27013C2F259
:102ED80000039DF80710995440F20A73C2F20003E8
:102EE8001B8803F101034FEAE3724FEA52529B1821
:102EF8004FEA43534FEA53539B1A9AB240F20A736C
:102F0800C2F200031A804FF08003C4F202031B6868
:102F180003F00103002B01D1FFF7C4FD03B000BD8E
:102F280000B583B0019008E0019B1B78019A02F17B
:102F3800010201921846FFF7BDFF019B1B78002B89
:102F4800F2D103B000BD00BF00B583B001904FF4CB
:102F58008050C4F600004FF4007116F045FA019A4B
:102F68004FF4A843C4F200039A4214D140F20C7300
:102F7800C2F200031B889BB203F101039AB240F22C
:102F88000C73C2F200031A8040F20C73C2F2000301
:102F98001B889BB213E040F20E73C2F200031B8839
:102FA8009BB203F101039AB240F20E73C2F200031E
:102FB8001A8040F20E73C2F200031B889BB21846B7
:102FC80003B000BD00B585B003908DF80B108DF8E7
:102FD8000A208DF8093041F67013C2F200034FF44D
:102FE80020421A6018E041F67013C2F200031B6811
:102FF800002B14BF00220122D2B203F1FF3141F6A7
:103008007013C2F200031960002A05D00398FFF775
:103018009BFF03469BB2DAE003984FF4004116F099
:103028007FFE0346002BDED19DF80B309BB24FF498
:1030380000520092039819464FF001024FF0807336
:1030480016F020FD41F67013C2F200034FF420423F
:103058001A6018E041F67013C2F200031B68002BD7
:1030680014BF00220122D2B203F1FF3141F67013DE
:10307800C2F200031960002A05D00398FFF764FF25
:1030880003469BB2A3E003984FF0020116F048FEF6
:103098000346002BDED09DF80A300398194616F037
:1030A8000FFE41F67013C2F200034FF420421A607B
:1030B80018E041F67013C2F200031B68002B14BF1E
:1030C80000220122D2B203F1FF3141F67013C2F29D
:1030D80000031960002A05D00398FFF735FF03465F
:1030E8009BB274E003984FF0800116F019FE034676
:1030F800002BDED09DF80B309BB24FF000020092FF
:10310800039819464FF001024FF0007316F0BAFC0D
:1031180041F67013C2F200034FF420421A6018E01F
:1031280041F67013C2F200031B68002B14BF002283
:103138000122D2B203F1FF3141F67013C2F200034B
:103148001960002A05D00398FFF7FEFE03469BB2DC
:103158003DE003984FF0020116F0E2FD0346002B14
:10316800DED09DF809300398194616F0A9FD41F6FE
:103178007013C2F200034FF420421A6018E041F6BF
:103188007013C2F200031B68002B14BF0022012237
:10319800D2B203F1FF3141F67013C2F20003196095
:1031A800002A05D00398FFF7CFFE03469BB20EE036
:1031B80003984FF0200116F0B3FD0346002BDED034
:1031C80003984FF0200116F0CDFD4FF0000318468C
:1031D80005B000BD00B585B003908DF80B108DF8D3
:1031E8000A20ADF8083041F67013C2F200034FF41C
:1031F80020421A6018E041F67013C2F200031B68FF
:10320800002B14BF00220122D2B203F1FF3141F694
:103218007013C2F200031960002A05D00398FFF763
:1032280093FE03469BB2F6E003984FF4004116F074
:1032380077FD0346002BDED19DF80B309BB24FF48F
:1032480000520092039819464FF001024FF0000314
:1032580016F018FC41F67013C2F200034FF4204236
:103268001A6018E041F67013C2F200031B68002BC5
:1032780014BF00220122D2B203F1FF3141F67013CC
:10328800C2F200031960002A05D00398FFF75CFE1C
:1032980003469BB2BFE003984FF0020116F040FDD1
:1032A8000346002BDED0BDF80830012B05D99DF868
:1032B8000A3063F07F038DF80A309DF80A300398CE
:1032C800194616F0FDFC41F67013C2F200034FF4E4
:1032D80020421A6018E041F67013C2F200031B681E
:1032E800002B14BF00220122D2B203F1FF3141F6B4
:1032F8007013C2F200031960002A05D00398FFF783
:1033080023FE03469BB286E003984FF0400116F077
:1033180007FD0346002BDED09DF80B309AB2BDF8AE
:103328000830DBB24FF410510091039811461A4649
:103338004FF0007316F0A6FB39E041F67013C2F2A5
:1033480000034FF420421A6018E041F67013C2F2ED
:1033580000031B68002B14BF00220122D2B203F124
:10336800FF3141F67013C2F200031960002A05D03C
:103378000398FFF7E9FD03469BB24CE003984FF032
:10338800040116F0CDFC0346002BDED0039816F09E
:10339800A3FC03461A46069B1A70069B03F1010319
:1033A8000693BDF8083003F1FF33ADF80830BDF8D7
:1033B8000830002BC1D141F67013C2F200034FF45C
:1033C80020421A6018E041F67013C2F200031B682D
:1033D800002B14BF00220122D2B203F1FF3141F6C3
:1033E8007013C2F200031960002A05D00398FFF792
:1033F800ABFD03469BB20EE003984FF0200116F098
:103408008FFC0346002BDED003984FF0200116F006
:10341800A9FC4FF00003184605B000BD00B587B001
:103428000190019A4FF4A843C4F200039A4240F075
:103438009E804FF001038DF810304FF003038DF894
:1034480011304FF001038DF812304FF000038DF862
:1034580013304FF0400303934FF48060C4F600002C
:1034680003AB194615F094FE4FF0800303934FF415
:103478008060C4F6000003AB194615F089FE4FF4CE
:103488008060C4F600004FF0400115F0ADFF4FF426
:103498008060C4F600004FF0800115F0A5FF4FF0E2
:1034A80000038DF817302EE04FF0030002F0E4FD22
:1034B80000E000BF4FF48060C4F600004FF0400108
:1034C80015F042FF0346002BEED04FF48060C4F69F
:1034D80000004FF0400115F093FF4FF0030002F099
:1034E800CBFD4FF48060C4F600004FF0400115F0AA
:1034F8007BFF4FF0030002F0BFFD9DF8173003F18A
:1035080001038DF817309DF81730072BD1D94FF4E8
:103518008060C4F600004FF0800115F071FF4FF095
:10352800030002F0A9FD4FF48060C4F600004FF0DC
:10353800400115F065FF4FF0030002F09DFD4FF4C8
:103548008060C4F600004FF0400115F04DFF4FF0C9
:10355800030002F091FD4FF48060C4F600004FF0C4
:10356800800115F041FF4FF0030002F085FD019A3C
:103578004FF4B043C4F200039A4240F096804FF0F3
:1035880001038DF810304FF003038DF811304FF020
:1035980001038DF812304FF000038DF813304FF00F
:1035A800400303934FF4A050C4F6000003AB194640
:1035B80015F0EEFD4FF4806303934FF0904003AB9A
:1035C800194615F0E5FD4FF4A050C4F600004FF081
:1035D800400115F009FF4FF090404FF4806115F05D
:1035E80003FF4FF000038DF817302EE04FF0030073
:1035F80002F042FD00E000BF4FF4A050C4F6000006
:103608004FF0400115F0A0FE0346002BEED04FF41A
:10361800A050C4F600004FF0400115F0F1FE4FF045
:10362800030002F029FD4FF4A050C4F600004FF04B
:10363800400115F0D9FE4FF0030002F01DFD9DF882
:10364800173003F101038DF817309DF81730072B59
:10365800D1D94FF090404FF4806115F0D1FE4FF072
:10366800030002F009FD4FF4A050C4F600004FF02B
:10367800400115F0C5FE4FF0030002F0FDFC4FF4C9
:10368800A050C4F600004FF0400115F0ADFE4FF019
:10369800030002F0F1FC4FF090404FF4806115F008
:1036A800A3FE4FF0030002F0E7FC07B000BD00BF27
:1036B80000B58DB00190019A4FF4A843C4F20003FD
:1036C8009A4240F086804FF480204FF0010117F0B5
:1036D80073FA4FF400104FF0010117F0B9FA4FF4E4
:1036E80080204FF0010117F067FA4FF0100017F033
:1036F8004FF90198FFF792FE4FF48060C4F600007E
:103708004FF006014FF0040215F0AAFE4FF4806056
:10371800C4F600004FF007014FF0040215F0A0FEB8
:103728000AAB184615F0D8FD03AB184615F07AFF1A
:103738004FF002038DF82C304FF003038DF82D3035
:103748004FF001038DF82E304FF000038DF82F3025
:103758004FF040030A934FF48060C4F600000AABB0
:10376800194615F015FD4FF080030A934FF4806059
:10377800C4F600000AAB194615F00AFD03AB18465B
:1037880015F050FF4FF0000306934FF00003049329
:103798004FF0000305934FF0000307934FF0000329
:1037A80008934FF00003099340F20B53C8F200034B
:1037B80003934FF4A840C4F2000003AB194615F078
:1037C800CDFE4FF4A840C4F200004FF0010115F0FF
:1037D80049FF019A4FF4B043C4F200039A4240F003
:1037E80084804FF480204FF0010117F0E5F94FF481
:1037F80080004FF0010117F02BFA4FF484004FF0CE
:10380800010117F0D9F94FF02000C1F2000017F0BC
:10381800BFF80198FFF702FE4FF4A050C4F600006D
:103828004FF006014FF0040215F01AFE4FF09040D9
:103838004FF00A014FF0040215F012FE0AAB1846C9
:1038480015F04AFD03AB184615F0ECFE4FF00203E5
:103858008DF82C304FF003038DF82D304FF0010315
:103868008DF82E304FF000038DF82F304FF04003C5
:103878000A934FF4A050C4F600000AAB194615F09D
:1038880087FC4FF480630A934FF090400AAB1946C7
:1038980015F07EFC03AB184615F0C4FE4FF000038C
:1038A80006934FF0000304934FF0000305934FF085
:1038B800000307934FF0000308934FF000030993A8
:1038C80040F20B53C8F2000303934FF4B040C4F224
:1038D800000003AB194615F041FE4FF4B040C4F2A6
:1038E80000004FF0010115F0BDFE0DB000BD00BF96
:1038F80082B00190019A4FF4A843C4F200039A429F
:1039080006D140F20C73C2F200031B889BB205E09B
:1039180040F20E73C2F200031B889BB2184602B035
:10392800704700BF00B583B04FF400104FF001019D
:1039380017F042F94FF4F0530093009B43F46143AE
:1039480000934FF001038DF804304FF003038DF816
:1039580005304FF000038DF806304FF000038DF866
:1039680007304FF48050C4F600006B46194615F036
:103978000FFC4FF48050C4F600004FF4007115F0AE
:103988003FFD4FF48050C4F600004FF4806115F0FD
:1039980037FD4FF48050C4F600004FF4006115F075
:1039A8002FFD4FF48050C4F600004FF4805115F0FD
:1039B80027FD4FF48050C4F600004FF4005115F075
:1039C8001FFD4FF48050C4F600004FF4804115F0FD
:1039D80017FD4FF48050C4F600004FF4004115F075
:1039E8000FFD4FF48050C4F600004FF4807115F0BD
:1039F80007FD03B000BD00BF00B583B003468DF8D6
:103A080007309DF807304FF46050C4F200001946A3
:103A180001F01CFE4FF46050C4F200004FF00001AA
:103A280001F014FE0346184603B000BD00B583B08C
:103A380002460B468DF807208DF806309DF80730B2
:103A48004FF46050C4F20000194601F0FFFD9DF8E4
:103A580006304FF46050C4F20000194601F0F6FD3C
:103A680003B000BD08B540F21073C2F200031B7822
:103A7800002B1CD14FF090404FF0080115F0C0FC0E
:103A880040F21973C2F200031B784FF00000194688
:103A9800FFF7CCFF4FF090404FF0080115F0A4FC61
:103AA80040F21073C2F200034FF001021A7008BD11
:103AB80008B540F21073C2F200031B78002B1CD02B
:103AC8004FF090404FF0080115F09AFC40F2167341
:103AD800C2F200031B784FF000001946FFF7A6FF5B
:103AE8004FF090404FF0080115F07EFC40F2107343
:103AF800C2F200034FF000021A7008BD00B585B08D
:103B080001908DF803108DF802208DF801309DF892
:103B180001309BB21A464FEA0212D31A4FEA430306
:103B28009AB29DF818309BB2D318ADF80C309DF8B6
:103B38000230002B01D0FFF7BBFF4FF090404FF051
:103B4800080115F05DFC9DF8023003F00103DBB2BB
:103B5800002B02D04FF0100201E04FF000029DF858
:103B6800023003F00203002B02D04FF0080301E0FB
:103B78004FF000031343DAB29DF80330012B0CBF5A
:103B880000230123DBB21343DBB2DBB24FF00400A6
:103B98001946FFF74BFFBDF80C304FEA13239BB2D1
:103BA800DBB24FF005001946FFF740FFBDF80C30B7
:103BB800DBB24FF006001946FFF738FF4FF000035D
:103BC8008DF80F301EE0019B002B0ED001981DF0E0
:103BD800E7FD03461A469DF80F309A4205D39DF833
:103BE8000F30019AD3181B7801E04FF000034FF013
:103BF80007001946FFF71AFF9DF80F3003F101037C
:103C08008DF80F309DF80F209DF803309A42DAD3D3
:103C18009DF80330012B05D04FF007004FF0FF014E
:103C2800FFF704FF4FF090404FF0080115F0DCFB60
:103C380005B000BD00B583B04FF000038DF8073024
:103C480043F6FC33C2F2000393F845338DF807308E
:103C58004FF090404FF0080115F0D2FB4FF0A00054
:103C6800FFF7CAFE03468DF806304FF090404FF03C
:103C7800080115F0B9FB9DF8063003F00103DBB22B
:103C8800002B03D04FF001038DF807309DF8063064
:103C980003F00203002B03D04FF000038DF8073028
:103CA8009DF80730002B2AD040F21273C2F20003AD
:103CB8004FF4F0721A8040F21473C2F200034FF00E
:103CC80010021A8040F21673C2F200034FF0480245
:103CD8001A7040F21773C2F200034FF04C021A70C8
:103CE80040F21873C2F200034FF042021A7040F219
:103CF8001973C2F200034FF040021A7029E040F233
:103D08001273C2F200034FF4C3721A8040F21473A4
:103D1800C2F200034FF00D021A8040F21673C2F28D
:103D280000034FF008021A7040F21773C2F2000342
:103D38004FF00C021A7040F21873C2F200034FF0F1
:103D480002021A7040F21973C2F200034FF0000227
:103D58001A7040F21473C2F200031B884FEA53032F
:103D68009BB2DAB240F6AE03C2F200031A7040F614
:103D7800AE03C2F200031B781A464FEAC202D318F8
:103D88004FEA4303DBB2A3F14803DAB240F6A903D2
:103D9800C2F200031A7040F6AE03C2F200031B78A9
:103DA8001A464FEAC202D3184FEA4303DBB203F1C3
:103DB8004803DAB240F6AB03C2F200031A7040F6C9
:103DC800AE03C2F200031B781A464FEAC202D318A8
:103DD8004FEA4303DBB203F10A03DAB240F6A80361
:103DE800C2F200031A7040F6AE03C2F200031B7859
:103DF8001A464FEAC202D3184FEA4303DBB2A3F1D3
:103E08004803DAB240F6AC03C2F200031A7040F677
:103E1800AE03C2F200031B781A464FEAC202D31857
:103E28004FEA4303DBB203F14803DAB240F6AD03CD
:103E3800C2F200031A7040F6AE03C2F200031B7808
:103E48001A464FEAC202D3184FEA4303DBB203F122
:103E58000A03DAB240F6AA03C2F200031A7003B0EA
:103E680000BD00BF00B583B043F6FC33C2F20003C7
:103E780093F84433002B55D0FFF7DCFE4FF0904009
:103E88004FF0080115F0BCFA40F21873C2F20003B3
:103E98001B784FF000001946FFF7C8FD4FF090401F
:103EA8004FF0080115F0A0FA4FF4FA7002F01EF96D
:103EB8004FF090404FF0080115F0A2FA4FF00003C0
:103EC8008DF807300FE09DF8073003F11003DBB2DF
:103ED80018464FF00201FFF7A9FD9DF8073003F1DE
:103EE80001038DF807309DF807309AB240F2147339
:103EF800C2F200031B889A42E5D340F21673C2F25D
:103F080000031B784FF000001946FFF78FFD4FF0B4
:103F1800640002F0EBF84FF090404FF0080115F004
:103F280063FA00E000BF03B000BD00BF00B583B076
:103F38004FF090404FF0080115F062FA40F2187304
:103F4800C2F200031B784FF000001946FFF76EFD20
:103F58004FF090404FF0080115F046FA4FF4FA7010
:103F680002F0C4F84FF090404FF0080115F048FAFD
:103F78004FF000038DF807300FE09DF8073003F18C
:103F88001003DBB218464FF00201FFF74FFD9DF812
:103F9800073003F101038DF807309DF807309AB216
:103FA80040F21473C2F200031B889A42E5D340F230
:103FB8001673C2F200031B784FF000001946FFF792
:103FC80035FD4FF090404FF0080115F00DFA03B0A1
:103FD80000BD00BF00B583B04FF090404FF008011E
:103FE80015F00EFA4FF004004FF00401FFF71EFD24
:103FF8004FF090404FF0080115F0F6F94FF001002E
:1040080002F074F84FF090404FF0080115F0F8F9FD
:104018004FF004004FF00101FFF708FD4FF00500D5
:104028004FF00001FFF702FD4FF006004FF02101AD
:10403800FFF7FCFC4FF000038DF8063035E09DF8E3
:1040480006304FF007001946FFF7F0FC9DF80620F0
:104058004AF6AB23CAF6AA23A3FB02134FEA1311AD
:104068000B464FEA43035B184FEAC303D31ADBB28C
:10407800172B14D14FF000038DF807300BE04FF0E9
:1040880007004FF00001FFF7D1FC9DF8073003F15E
:1040980001038DF807309DF80730052BEFD99DF8FF
:1040A800063003F101038DF806309DF80630FF2B2A
:1040B800C5D14FF007004FF0FF01FFF7B7FC4FF0F5
:1040C80090404FF0080115F08FF903B000BD00BF14
:1040D80008B500BF4FF0A000FFF78EFC034603F0C1
:1040E8002003002BF6D108BD00B585B002460B466B
:1040F8008DF80720ADF804304FF090404FF00801DC
:1041080015F07EF940F21973C2F200031B784FF0E4
:1041180000001946FFF78AFC9DF807304FF00900A8
:104128001946FFF783FC4FF000038DF80F301BE0B2
:104138009DF80F304FF00A001946FFF777FCBDF8DD
:1041480004209DF80F30D21846F62C73C0F60203EF
:104158009B5C4FF00B001946FFF768FC9DF80F3089
:1041680003F101038DF80F309DF80F30352BDFD99F
:104178004FF008004FF0A001FFF758FCFFF7A8FF29
:1041880040F21773C2F200031B784FF00000194683
:10419800FFF74CFC4FF090404FF0080115F024F960
:1041A80005B000BD00B583B04AF62C70C0F6020019
:1041B80002F032FC4FF00003ADF806302CE0BDF8F9
:1041C8000630184643F67831C2F200014FF00A0271
:1041D80012F0FCFC43F67830C2F2000002F01CFC3E
:1041E800BDF80630DAB2BDF806304FEA83139BB249
:1041F80010461946FFF778FF4FF01E0001F076FFD2
:104208004AF66C70C0F6020002F006FCBDF80630F3
:1042180003F10103ADF80630BDF80630FF2BCED907
:10422800FFF784FEFFF7D6FE4AF67470C0F6020068
:1042380002F0F2FB03B000BD00B58DB00346ADF847
:1042480006300AAB184615F047F807AB184617F0C2
:10425800A9FC02AB184618F0C9F84FF400304FF02B
:10426800010116F0A9FC4FF480204FF0010116F06F
:10427800A3FC4FF400204FF0010116F09DFC4FF411
:1042880080104FF0010116F097FC4FF004004FF03A
:10429800010116F0DDFC4FF400504FF0010116F05B
:1042A800B1FC4FF480204FF0010116F0ABFC4FF445
:1042B80000430A934FF002038DF82C304FF00303AC
:1042C8008DF82D304FF090400AAB194614F060FF7E
:1042D8004FF020030A934FF48060C4F600000AAB45
:1042E800194614F055FF4FF4C0730A934FF4006059
:1042F800C4F600000AAB194614F04AFF4FF47043A5
:104308000A934FF44060C4F600000AAB194614F053
:104318003FFF4FF090404FF00F014FF0020215F0B1
:104328009FF84FF48060C4F600004FF005014FF08D
:10433800040215F095F84FF40060C4F600004FF041
:1043480007014FF0020215F08BF84FF40060C4F635
:1043580000004FF008014FF0020215F081F84FF409
:104368004060C4F600004FF00C014FF0020215F057
:1043780077F84FF44060C4F600004FF00D014FF09D
:10438800020215F06DF84FF44060C4F600004FF0DB
:104398000E014FF0020215F063F84FF44060C4F6C6
:1043A80000004FF00F014FF0020215F059F8BDF868
:1043B800062048F28043C0F21E0393FBF2F39BB23F
:1043C80003F1FF3308934FF02303ADF81C304FF48B
:1043D8000060C4F2000007AB194617F055FB4FF414
:1043E8005050C4F2010007AB194617F04DFB4FF4CB
:1043F8009040C4F2010007AB194617F045FB4FF097
:10440800700302934FF00103ADF80C304FF4FA63D8
:1044180004934FF00203ADF814304FF48073ADF8F5
:1044280018304FF40060C4F2000002AB194617F0D0
:10443800DFFC4FF40060C4F2000002AB194617F02D
:1044480065FD4FF40060C4F2000002AB194617F096
:10445800E5FD4FF40060C4F2000002AB194617F006
:1044680061FE4FF45050C4F2010002AB194617F038
:10447800BFFC4FF45050C4F2010002AB194617F0CC
:1044880045FD4FF45050C4F2010002AB194617F035
:10449800C5FD4FF49040C4F2010002AB194617F075
:1044A800A7FC4FF40060C4F200004FF0010117F0C0
:1044B80083FC4FF45050C4F201004FF0010117F093
:1044C8007BFC4FF49040C4F201004FF0010117F05B
:1044D80073FC4FF40060C4F200004FF0010118F0C3
:1044E800E1FD4FF45050C4F201004FF0010118F003
:1044F800D9FD4FF49040C4F201004FF0010118F0CB
:10450800D1FD0DB000BD00BF82B002460B468DF84C
:104518000720ADF804309DF8072040F21003C2F2DE
:10452800000353F82230BDF804201A6002B0704727
:1045380000B58DB00346ADF806300AAB184614F046
:10454800CBFE07AB184617F02DFB02AB184617F049
:104558004DFF4FF480004FF0010116F02DFB4FF492
:1045680080304FF0010116F04DFB4FF4C0630A9301
:104578004FF002038DF82C304FF003038DF82D30E7
:104588004FF4A050C4F600000AAB194614F000FE20
:104598004FF4A050C4F600004FF009014FF002029A
:1045A80014F05EFF4FF4A050C4F600004FF00A016B
:1045B8004FF0020214F054FFBDF8062048F2804381
:1045C800C0F21E0393FBF2F39BB203F1FF3308938F
:1045D8004FF02303ADF81C304FF48040C4F20100C3
:1045E80007AB194617F050FA4FF0700302934FF0DB
:1045F8000103ADF80C3040F6B83304934FF00203D2
:10460800ADF814304FF48073ADF818304FF4804093
:10461800C4F2010002AB194617F0EAFB4FF48040E0
:10462800C4F2010002AB194617F070FC4FF4804049
:10463800C4F201004FF0010117F0BEFB4FF48040B7
:10464800C4F201004FF0010118F02CFD0DB000BDBF
:1046580082B002460B468DF80720ADF804309DF86D
:10466800072040F23003C2F2000353F82230BDF8AD
:1046780004201A6002B0704700B585B00190019817
:104688004FF0100118F0B4FD0346012B1AD140F287
:104698005C73C2F200031A8840F25E73C2F2000330
:1046A8001A80019818F0F8FB03469AB240F25C733E
:1046B800C2F200031A8040F21C73C2F200034FF0EA
:1046C80001021A7001984FF0100118F0C9FD40F26C
:1046D8005C73C2F200031A8840F25E73C2F20003F0
:1046E8001B88D31AADF80E30BDF80E2041F21853CE
:1046F8009A4207D940F26073C2F200034FF00002F9
:104708001A7033E0BDF80E2040F2DC539A4220D9EB
:10471800BDF80E2041F293139A421AD840F2607302
:10472800C2F200031B78072B13D840F26073C2F261
:1047380000031B78194640F22072C2F200020B46B1
:104748004FEA43035B184FEA4303D318BDF80E2022
:104758009A8040F26073C2F200031B7803F10103F0
:10476800DAB240F26073C2F200031A7005B000BDFD
:1047780000B589B001904FF0000306934FF0000395
:104788008DF81F30DDE09DF81F3040F23802C2F28C
:1047980000024FEAC303D31893E8030003AB83E88E
:1047A80003009DF81F2013464FEA43039B184FEA66
:1047B80043031A4640F22073C2F20003D31805934C
:1047C800039A019B9A4240F0B680039ABDF81230D2
:1047D8001046194618F00CFD0346012B40F0AB803B
:1047E800039ABDF812301046194618F039FD9DF8A5
:1047F8001F30002B06D140F21C73C2F200034FF0A9
:1048080001021A70BDF810300C2B3DD801A252F8E5
:1048180023F000BF5148000891480008914800085B
:10482800914800086148000891480008914800082C
:10483800914800087148000891480008914800080C
:104848009148000881480008039B184618F00CFBA3
:1048580003469BB2069317E0039B184618F00CFB1F
:1048680003469BB206930FE0039B184618F00CFB17
:1048780003469BB2069307E0039B184618F00CFB0F
:1048880003469BB2069300BF059B1B78002B1ED1E5
:10489800069B9AB2059B5A80059B4FF001021A703D
:1048A800BDF8102040F25073C2F200031A8040F2A3
:1048B8005073C2F200034FF002025A80039B18465D
:1048C80040F25071C2F2000118F0FAF933E0059B8A
:1048D8005B881A46069B9A4208D2069B9AB2059BA9
:1048E8005B88D31A9AB2059B9A800AE0069B9AB213
:1048F800059B5B88D31A9BB203F1FF339AB2059BE1
:104908009A80059B4FF000021A70BDF8102040F203
:104918005073C2F200031A8040F25073C2F20003CF
:104928004FF000025A80039B184640F25071C2F2C1
:10493800000118F0C5F99DF81F3003F101038DF847
:104948001F309DF81F30072B7FF61DAF09B000BD43
:1049580008B54FF43050C4F20100FFF709FF08BD55
:1049680008B54FF08040FFF703FF08BD08B54FF4C6
:104978008060C4F20000FFF7FBFE08BD08B543F6EF
:10498800FC33C2F2000393F86C30022B06D14FF4CB
:104998008840C4F20100FFF76FFE05E04FF488403D
:1049A800C4F20100FFF7E4FE08BD00BF10B584B0F3
:1049B8004FF49040C4F2000040F20511C0F2050126
:1049C80019F00AFD0346012B40F0BA8040F21C732F
:1049D800C2F200034FF001021A7001F019FA0290B6
:1049E80041F67C13C2F200031B68029AD21A41F600
:1049F8007413C2F200031A6041F67C13C2F200037A
:104A0800029A1A6041F67413C2F200031A6841F25E
:104A180088339A4206D941F6C013C2F200034FF018
:104A280000021A7041F6C013C2F200031B781C463C
:104A38004FF49040C4F2000019F06AFA0346DAB263
:104A480041F68013C2F200031A5541F6C013C2F2B0
:104A580000031B780F2B07D140F25A73C2F20003F0
:104A68004FF001021A700CE041F6C013C2F20003C5
:104A78001B7803F10103DAB241F6C013C2F2000356
:104A88001A7040F25A73C2F200031B78002B57D0F9
:104A98004FF003038DF80F3047E09DF80F3003F116
:104AA800FF3241F68013C2F200039B5C1A4641F6BE
:104AB8007B13C2F200031B7842FA03F3DBB203F064
:104AC8000F038DF8073043F6FC33C2F2000393F866
:104AD8006D309DF807209A4221D29DF807209DF855
:104AE8000F3003F1FF3141F68013C2F20003595C25
:104AF80041F67813C2F200031B780B40DBB24FEA91
:104B080003219DF80F0041F68013C2F200031B5CDD
:104B1800C91841F69013C2F2000343F822109DF819
:104B28000F3003F102038DF80F309DF80F300F2B73
:104B3800B3D940F25A73C2F200034FF000021A7060
:104B480004B010BD00B58DB007AB184617F02AF8B1
:104B580040F25070C2F2000018F004F943F6FC333A
:104B6800C2F2000393F86C30022B40F0C4804FF47B
:104B780080204FF0010116F01FF84FF400304FF07D
:104B8800010116F03FF841F67913C2F200034FF025
:104B980000021A7020E041F67913C2F200031B7874
:104BA800194640F22072C2F200020B464FEA430354
:104BB8005B184FEA4303D31840F6B8329A8041F69F
:104BC8007913C2F200031B7803F10103DAB241F64C
:104BD8007913C2F200031A7041F67913C2F2000386
:104BE8001B78072BD7D94FF480730A934FF0020331
:104BF8008DF82C304FF003038DF82D304FF0000363
:104C08008DF82E304FF000038DF82F304FF4806070
:104C1800C4F600000AAB194614F0BAFA4FF48060E3
:104C2800C4F600004FF008014FF0040214F018FC1D
:104C38004FF019038DF818304FF002038DF8193032
:104C48004FF000038DF81A304FF001038DF81B3038
:104C580006AB184615F0E8F84FF02303ADF81C3002
:104C68004FF6FF7308934FF40060C4F2000007ABDF
:104C7800194616F009FF40F25073C2F200034FF0D4
:104C880000021A8040F25073C2F200034FF0000293
:104C98005A8040F25073C2F200034FF001029A802A
:104CA80040F25073C2F200034FF00002DA8040F283
:104CB8005073C2F200034FF000021A814FF488408B
:104CC800C4F2010040F25071C2F2000117F0F8FF7F
:104CD8004FF48840C4F201004FF002014FF0010286
:104CE80018F02EFA4FF48840C4F201004FF0010189
:104CF80017F062F86DE243F6FC33C2F2000393F852
:104D08006C30012B40F0C4814FF400304FF00101AA
:104D180015F052FF4FF480204FF0010115F04CFFC1
:104D28004FF400204FF0010115F046FF4FF40060EA
:104D38004FF0010115F066FF4FF001004FF001013F
:104D480015F086FF4FF002004FF0010115F080FFCB
:104D58004FF400304FF0010115F054FF41F679137C
:104D6800C2F200034FF000021A7020E041F67913F6
:104D7800C2F200031B78194640F22072C2F2000208
:104D88000B464FEA43035B184FEA4303D31840F638
:104D9800B8329A8041F67913C2F200031B7803F106
:104DA8000103DAB241F67913C2F200031A7041F630
:104DB8007913C2F200031B78072BD7D940F21233BC
:104DC8000A934FF002038DF82C304FF003038DF84F
:104DD8002D304FF000038DF82E304FF002038DF880
:104DE8002F304FF090400AAB194614F0D1F94FF428
:104DF80050630A934FF48060C4F600000AAB19466A
:104E080014F0C6F94FF040030A934FF40060C4F65B
:104E180000000AAB194614F0BBF94FF090404FF070
:104E280001014FF0010214F01BFB4FF090404FF0CE
:104E380004014FF0020214F013FB4FF090404FF0C2
:104E480008014FF00B0214F00BFB4FF090404FF0AD
:104E580009014FF00B0214F003FB4FF48060C4F615
:104E680000004FF008014FF0040214F0F9FA4FF473
:104E78008060C4F600004FF00A014FF0010214F000
:104E8800EFFA4FF48060C4F600004FF00B014FF0CA
:104E9800010214F0E5FA4FF40060C4F600004FF088
:104EA80006014FF0020214F0DBFA4FF01B038DF8F5
:104EB80018304FF002038DF819304FF000038DF8C9
:104EC8001A304FF001038DF81B3006AB184614F06A
:104ED800ABFF4FF01C038DF8183006AB184614F0E2
:104EE800A3FF4FF01D038DF8183006AB184614F0D9
:104EF8009BFF4FF019038DF8183006AB184614F0D5
:104F080093FF4FF02303ADF81C304FF6FF7308935F
:104F18004FF43050C4F2010007AB194616F0B4FD47
:104F28004FF0804007AB194616F0AEFD4FF4806095
:104F3800C4F2000007AB194616F0A6FD4FF48840EE
:104F4800C4F2010007AB194616F09EFD40F25073FB
:104F5800C2F200034FF000025A8040F25073C2F2CE
:104F680000034FF001029A8040F25073C2F200032E
:104F78004FF00002DA8040F25073C2F200034FF0A3
:104F880000021A8141F67913C2F200034FF00002C1
:104F98001A7031E041F67913C2F200031B7840F22F
:104FA8003802C2F200024FEAC303D3189A8840F2CB
:104FB8005073C2F200031A8041F67913C2F200035B
:104FC8001B781A4640F23803C2F2000353F8323015
:104FD800184640F25071C2F2000117F071FE41F616
:104FE8007913C2F200031B7803F10103DAB241F628
:104FF8007913C2F200031A7041F67913C2F2000362
:105008001B78072BC6D94FF43050C4F201004FF07B
:1050180006014FF0010218F093F84FF080404FF06E
:105028001C014FF0010218F08BF84FF48060C4F2B5
:1050380000004FF006014FF0010218F081F84FF41C
:105048008840C4F201004FF002014FF0010218F04D
:1050580077F84FF43050C4F201004FF0010116F018
:10506800ABFE4FF080404FF0010116F0A5FE4FF463
:105078008060C4F200004FF0010116F09DFE4FF46D
:105088008840C4F201004FF0010116F095FEA0E03F
:1050980043F6FC33C2F2000393F86C30032B40F064
:1050A80098804FF480104FF0010115F085FD4FF402
:1050B80080204FF0010115F0CBFD4FF027038DF84C
:1050C80018304FF002038DF819304FF000038DF8B7
:1050D8001A304FF001038DF81B3006AB184614F058
:1050E800A3FE4FF44060C4F600004FF009014FF0F2
:1050F800070214F0B5F94FF400730A934FF0020356
:105108008DF82C304FF003038DF82D304FF000034D
:105118008DF82E304FF001038DF82F304FF440609A
:10512800C4F600000AAB194614F032F84FF4E13324
:1051380000934FF0000301934FF0000302934FF0E8
:10514800000303934FF0040304934FF00003059307
:105158004FF49040C4F200006B46194618F054FC16
:105168004FF49040C4F2000040F20511C0F205016E
:105178004FF0010219F090F84FF49040C4F200008B
:105188004FF0010118F054FD43F6FC33C2F200035E
:1051980093F86E30002B0ED041F67B13C2F2000359
:1051A8004FF003021A7041F67813C2F200034FF071
:1051B80007021A700DE041F67B13C2F200034FF0AC
:1051C80002021A7041F67813C2F200034FF003028C
:1051D8001A700DB000BD00BF84B003468DF80730CB
:1051E80043F6FC33C2F2000393F86C30032B37D13B
:1051F80043F6FC33C2F2000393F86D309DF80720A4
:105208009A4204D34FF4FA63ADF80E3025E043F622
:10521800FC33C2F2000393F86E30002B0DD09DF8DA
:10522800072041F69013C2F2000353F822309BB2D4
:1052380003F57A73ADF80E300FE09DF8072041F6BC
:105248009013C2F2000353F822309BB203F57A732D
:105258009BB24FEA4303ADF80E30BDF80E300DE0B7
:105268009DF8071040F22072C2F200020B464FEA86
:1052780043035B184FEA4303D3189B88184604B0CE
:10528800704700BF00B585B04FF400204FF0010112
:1052980015F092FC4FF480104FF0010115F08CFCD2
:1052A8004FF0020301934FF000038DF808304FF0E0
:1052B80003038DF809304FF000038DF80A304FF0E2
:1052C80001038DF80B304FF40060C4F6000001AB09
:1052D800194613F05DFF4FF40060C4F600004FF06C
:1052E800020114F031F80346012B6BD043F6FC336E
:1052F800C2F2000393F86D30072B07D841F67A13F2
:10530800C2F200034FF003021A7006E041F67A1366
:10531800C2F200034FF005021A704FF400730193B4
:105328004FF001038DF808304FF003038DF8093072
:105338004FF000038DF80A304FF000038DF80B3062
:105348004FF44060C4F6000001AB194613F020FF8B
:105358004FF44060C4F600004FF400714FF00102B2
:1053680014F05AF84FF03C0000F0C0FE4FF0000374
:105378008DF80F3021E04FF44060C4F600004FF480
:1053880000714FF0000214F047F84FF0780000F079
:1053980073FE4FF44060C4F600004FF400714FF004
:1053A800010214F039F84FF0780000F065FE9DF81E
:1053B8000F3003F101038DF80F309DF80F30022BE9
:1053C800D9D900E000BF05B000BD00BF00B58BB063
:1053D8000190019A4FF44053C4F201039A4240F0FD
:1053E800A8804FF480504FF0010115F00BFC4FF4EA
:1053F80000304FF0010115F0DFFB4FF090404FF007
:1054080005014FF0050214F02BF84FF090404FF0D3
:1054180006014FF0050214F023F84FF090404FF0CA
:1054280007014FF0050214F01BF84FF0E003089352
:105438004FF002038DF824304FF003038DF8253028
:105448004FF000038DF826304FF000038DF8273019
:105458004FF0904008AB194613F09AFE4FF4001035
:105468004FF0010115F0A8FB4FF0080308934FF027
:1054780001038DF824304FF003038DF825304FF0E9
:1054880000038DF826304FF000038DF827304FF4D5
:105498008050C4F6000008AB194613F079FE4FF4AB
:1054A8008050C4F600004FF0080113F09DFF4FF440
:1054B8004050C4F2010015F023FD4FF00003ADF891
:1054C8000C304FF48273ADF80E304FF4E063ADF852
:1054D80010304FF00003ADF812304FF00003ADF874
:1054E80014304FF40073ADF816304FF01003ADF8D8
:1054F80018304FF00003ADF81A304FF00703ADF83D
:105508001C304FF44050C4F2010003AB194615F0AB
:105518005FFD4FF44050C4F201004FF4805115F084
:1055280059FF4FF44050C4F201004FF0010115F04B
:10553800DDFE019A4FF46053C4F200039A4244D14D
:105548004FF480404FF0010115F082FB4FF48020AA
:105558004FF0010115F030FB4FF48060C4F60000F5
:105568004FF00D014FF0060213F07AFF4FF4806000
:10557800C4F600004FF00E014FF0060213F070FF62
:105588004FF48060C4F600004FF00F014FF00602A0
:1055980013F066FF4FF4604308934FF002038DF851
:1055A80024304FF003038DF825304FF000038DF8B9
:1055B80026304FF000038DF827304FF48060C4F692
:1055C800000008AB194613F0E3FD0BB000BD00BFA7
:1055D80000B583B001904FF48050C4F600004FF43A
:1055E800007113F001FF019A4FF44053C4F2010314
:1055F8009A4214D140F26473C2F200031B889BB232
:1056080003F101039AB240F26473C2F200031A80F4
:1056180040F26473C2F200031B889BB213E040F2AD
:105628006673C2F200031B889BB203F101039AB2AE
:1056380040F26673C2F200031A8040F26673C2F247
:1056480000031B889BB2184603B000BD00B585B0A7
:1056580001900B468DF803304FF48053ADF80E30AF
:1056680014E0BDF80E30002B14BF00230123DBB279
:10567800BDF80E2002F1FF32ADF80E20002B05D048
:105688000198FFF7A5FF0346DBB233E001984FF01E
:10569800020116F0AFF80346002BE2D09DF8033064
:1056A8000198194615F078FF4FF48053ADF80E3085
:1056B80014E0BDF80E30002B14BF00230123DBB229
:1056C800BDF80E2002F1FF32ADF80E20002B05D0F8
:1056D8000198FFF77DFF0346DBB20BE001984FF01E
:1056E800010116F087F80346002BE2D0019815F067
:1056F80073FF0346184605B000BD00BF00B585B06E
:1057080001900B46ADF8023001984FF0000115F0FA
:10571800EDFD019B1B88ADF80E30BDF80230102B53
:1057280036D0102B06DC042B18D0082B23D0022BE4
:105738000DD06EE0402B45D0402B02DC202B34D01E
:1057480067E0802B4BD0B3F5807F55D061E0BDF882
:105758000E3023F03803ADF80E305AE0BDF80E30A5
:1057680023F03803ADF80E30BDF80E3043F00803CF
:10577800ADF80E304DE0BDF80E3023F03803ADF82B
:105788000E30BDF80E3043F01003ADF80E3040E097
:10579800BDF80E3023F03803ADF80E30BDF80E30EA
:1057A80043F01803ADF80E3033E0BDF80E3023F0A7
:1057B8003803ADF80E30BDF80E3043F02003ADF8D5
:1057C8000E3026E0BDF80E3023F03803ADF80E3069
:1057D800BDF80E3043F02803ADF80E3019E0BDF8DF
:1057E8000E3023F03803ADF80E30BDF80E3043F01C
:1057F8003003ADF80E300CE0BDF80E3023F038035E
:10580800ADF80E30BDF80E3043F03803ADF80E3069
:1058180000BF019BBDF80E201A8001984FF00101CE
:1058280015F064FD05B000BD82B00190019A4FF4F7
:105838004053C4F201039A4206D140F26473C2F2A3
:1058480000031B889BB205E040F26673C2F20003B6
:105858001B889BB2184602B0704700BF82B003464F
:1058680000918DF807309DF90730002B11DA4FF4BD
:105878006D43CEF200039DF8072002F00F02A2F15B
:105888000401009AD2B24FEA0212D2B25B181A7619
:105898000DE04FF46143CEF200039DF90710009A22
:1058A800D2B24FEA0212D2B25B1883F8002302B0D8
:1058B800704700BF00B583B00190019A6FF07F4335
:1058C8009A4202D94FF001031FE04EF21003CEF2C4
:1058D8000003019A22F07F4202F1FF325A604FF032
:1058E800FF304FF00F01FFF7B9FF4EF21003CEF271
:1058F80000034FF000029A604EF21003CEF200034C
:105908004FF007021A604FF00003184603B000BDBD
:1059180000B591B001AB184614F064FD019A4DF63C
:105928008363C4F21B33A3FB02134FEA934240F292
:105938006873C2F200031A604EF6F053CEF2000309
:105948004EF6F052CEF20002D26842F08072DA606F
:105958004FF48053CEF200034FF48052CEF200028F
:10596800126842F001021A6011B000BD00B583B0A0
:1059780041F20403CEF200031A6840F27073C2F2D7
:1059880000031A6040F26C73C2F200031B6803F153
:10599800010240F26C73C2F200031A6040F27C7399
:1059A800C2F200031B78012B40F02F8240F2DC7317
:1059B800C2F200031B78002B40F0278240F2D0632C
:1059C800C2F200031B78002B40F01F8240F2947350
:1059D800C2F200031B78002B40F0178240F2CC6320
:1059E800C2F200031B78002B40F00F8240F295733F
:1059F800C2F200031B78002B40F0078240F2747358
:105A0800C2F200031B8803F101039AB240F27473D7
:105A1800C2F200031A8040F27473C2F200031B88BA
:105A2800B3F57A7F06D940F27473C2F200034FF0DF
:105A380001021A8000F0ECF9009041F6F813C2F266
:105A480000031B68009AD21A41F6D413C2F200036D
:105A58001A6041F6F813C2F20003009A1A60FAF7C6
:105A680031FDFAF731FC40F2E063C2F200031A6834
:105A780040F67C03C2F200031B881BB2D21840F226
:105A8800E063C2F200031A6040F2E063C2F200036E
:105A98005A6840F67C03C2F200035B881BB2D21836
:105AA80040F2E063C2F200035A6040F2E063C2F2DF
:105AB80000039A6840F67C03C2F200039B881BB27D
:105AC800D21840F2E063C2F200039A6040F2D46355
